:0400000080315728CC
:100008007E14803120007F08F300911C47280130BE
:10001800F6070030F73D78080A3EF0000030793DD9
:10002800F1007108803AF2007708803A7202031DE5
:100038001F28760870020318432801302000EB07B8
:100048000030EC3DF601F70150306B066C04031DDF
:1000580043280130E0070030E13DEB01EC01610885
:10006800803AF00080307002031D3C2806306002A0
:10007800031C432801302000E0000030E10021008B
:100088009D1420009110111F532821001C08F00016
:10009800F1017008F8007108F900200011137308C5
:1000A800FF007E10090080315928243084008130F7
:1000B8008500203086000030870042308131E621FB
:1000C800F601F701F801F901EB01EC017E102000BF
:1000D8008131C62920006C08F5006B08F4008031D6
:1000E800CC20803175082000E8007408E7006C080F
:1000F800E4006B08E30081319B2180312000640813
:10010800EA006308E900B728690825009100200083
:10011800670825009800260091019801080025002D
:100128009101200069082500980020006708260032
:1001380091009801080025009101980120006908A4
:10014800260091002000670826009800080020007B
:100158006708250091009801260091012000690890
:1001680026009800080020006108003A0319BD28FD
:10017800CB286008013A03198828033A0319932801
:10018800013A03199F28073A0319AB28CB2808001E
:1001980020006C08803AE20080306202031DD628F5
:1001A80010306B02031C1B2920006C08803AE20007
:1001B80080306202031DE22820306B020318E72812
:1001C8007408F03E132920006C08803AE200803061
:1001D8006202031DF12830306B020318F6287408F8
:1001E800E03E132920006C08803AE2008030620269
:1001F800031D002940306B02031805297408D03EFE
:10020800132920006C08803AE20080306202031D46
:100218000F2950306B02031817297408C03EF400E8
:10022800FF30753D1A291F30F4000030F500743591
:10023800203E86008701403FF400413FF50008005A
:1002480000340034033400340534003408340034F6
:100258000A3400340D3400340F34003412340034BE
:100268001434003417340034193400341B34003487
:100278001E34003420340034233400342534003450
:10028800283400342C34003431340034363400340B
:100298003A3400343F3400344334003447340034B3
:1002A8004B3400345B340034613400346834003437
:1002B80068340034723400348034003480340034BC
:1002C80001340034FC302100990519088739703849
:1002D8009900991704308C008D01043023008C009C
:1002E8008D0120008C018D012100951315139512A5
:1002F8009511F83095058B17080021001D088339E2
:1003080008389D001E1103309E048131DF21210031
:100318001E088F3920389E001E088F3930389E00FD
:1003280020001113210011139E131D140800200032
:100338006309E5006409E600E50A0319E60A6508A9
:10034800503EF4000030663DF5008031CC20750841
:100358002000E4007408E300080025001308F039C1
:100368000C3893001A08F0390C389A002600130844
:10037800F0390C3893001A08F0390C389A0081319A
:10038800D521080081316621813181318121813176
:100398008131B12181312100911480316E20813168
:1003A800D129FF3020009B001C15FC309C058730AC
:1003B8009C050B1708002200971703309704171B9A
:1003C8000800E329FE0012001E00FE0BE729003496
:020000040001F9
:04000E00E4FFFFFF0D
:00000001FF
