:0400000080315D28C6
:100008007E14803120007F08F300911C4D280130B8
:10001800F6070030F73D78080A3EF0000030793DD9
:10002800F1007108803AF2007708803A7202031DE5
:100038001F28760870020318492801302000DC07C1
:100048000030DD3DF601F7015D08803AF0008030B0
:100058007002083003195C02031C49280130200093
:10006800D0070030D13DDC01DD015108803AF000B5
:1000780080307002031D422805305002031C4928B5
:1000880001302000D0000030D10021009D14200054
:100098009110111F592821001C08F000F101700867
:1000A800F8007108F900200011137308FF007E1092
:1000B800090080315F28E7308400813085002030D6
:1000C80086000030870032308231BE22F601F70107
:1000D800F801F901D201D301D401D501D601D70124
:1000E800D801D901DA01DB01DC01DD017E10200035
:1000F8008231952A20005D08F5005C08F400823101
:10010800AE22803175082100A5007408A4002000E3
:100118005D08DF005C08DE0082316A228031200041
:100128005F082100A70020005E082100A60020002B
:100138008C1CF7285A35203E86008701403FDE0098
:10014800413FDF00210027082000E10021002608A8
:100158002000E00082311922803120005E0E0F3924
:100168002100A60020005F0EF0392100A60420001F
:100178005F0E0F392100A700F030A71D0030A7043B
:1001880020005A35203E86008701403FDE00413F6F
:10019800DF00210025082000E100210024082000BC
:1001A800E00082311922803120005E0E0F392100D3
:1001B800A40020005F0EF0392100A40420005F0E87
:1001C8000F392100A500F030A51D0030A50401302D
:1001D8002000DA070030DB3D10305A065B04031DAF
:1001E800F728DA01DB015230860000308700A8309A
:1001F8008400003085000830E20016001A00E20B87
:1002080001293B2921002708A9002608A80025085C
:10021800AB002408AA00AC01AD011D292100A801EA
:10022800A9012708AB002608AA002508AD00240864
:10023800AC00AE01AF014F292100A801A901AA0114
:10024800AB012708AD002608AC002508AF0024083C
:10025800392921002508A9002408A800AA01AB0112
:10026800AC01AD012708AF002608AE004F292000D9
:100278005108003A031941294F295008013A031936
:100288000629033A03191229013A03192029073AC2
:1002980003192D294F292100A00130083104031921
:1002A8005729A001A00A20082000E200E20E25003C
:1002B800130820006206CF3962062500930021004A
:1002C80029082000E300210028082000E200630D2F
:1002D800E30CE20C630DE30CE20C620825009100CC
:1002E8002100A1012A082B0403197C29A101A10AD4
:1002F80021082000E200E20E25001A08200062060C
:10030800CF39620625009A000230A83E8600870190
:10031800403F2000E200413FE300630DE30CE20CA4
:10032800630DE30CE20C6208250098002100A2018D
:100338002C082D040319A229A201A20A22082000D0
:10034800E200E20E2600130820006206CF3962069A
:10035800260093000430A83E86008701403F200015
:10036800E200413FE300630DE30CE20C630DE30C94
:10037800E20C6208260091002100A3012E082F0438
:100388000319C829A301A30A23082000E200E20EEA
:1003980026001A0820006206CF39620626009A0055
:1003A8000630A83E86008701403F2000E200413F1A
:1003B800E300630DE30CE20C630DE30CE20C62084E
:1003C8002600980008009F340034B13400349C346F
:1003D8000034A6340034A0340034A03400349B34F4
:1003E80000349A340034A3340034AB3400349234EB
:1003F8000034A0340034A1340034A8340034A134CB
:1004080000348034003432340034623400348E34A2
:100418000034B4340034D4340034EC340034FA34C6
:100428000034FF34003401340034F401F5012000B5
:100438005E1C222A6008F4076108F53D0130E035AA
:10044800E10D890B232A0130DF36DE0C890B282ABF
:100458005E085F04031D1B2A7508DF007408DE00B0
:100468000800FC302100990519088739703899006F
:10047800991706308C008D01043023008C008D0103
:1004880020008C018D0121009513151395129511EB
:10049800F83095058B17080021001D0883390838A6
:1004A8009D001E1103309E048231B72221001E08D0
:1004B8008F3920389E001E088F3930389E00200062
:1004C8001113210011139E131D14080020005E094A
:1004D800E0005F09E100E00A0319E10A6008073E4D
:1004E800F4000030613DF5008231AE22750820002D
:1004F800DF007408DE00080025001308F0390C3806
:1005080093001A08F0390C389A0026001308F039BD
:100518000C3893001A08F0390C389A008231A4225A
:100528000800823135228231823150228231823173
:10053800802282312100911480317E208231A02ACC
:100548003F3020009B001C15FC309C0587309C0523
:100558000B1708007435403E86008701403FF400C1
:10056800413FF50008002200971703309704171B36
:100578000800BB2AFE0012001E00FE0BBF2A003432
:020000040001F9
:04000E00E4FFFFFF0D
:00000001FF
